:020000040800F2
:1000000090080020D91D0008A9030008AB030008D0
:10001000AF030008B3030008B703000800000000A6
:10002000000000000000000000000000BB0300080A
:10003000BD03000800000000BF030008C103000862
:10004000F31D0008F31D0008F31D0008F31D000850
:10005000F31D0008F31D0008F31D0008F31D000840
:10006000F31D0008F31D0008F31D0008F31D000830
:10007000F31D0008F31D0008F31D0008F31D000820
:10008000F31D0008F31D0008F31D0008F31D000810
:10009000F31D0008F31D0008F31D0008F31D000800
:1000A000F31D0008F31D0008F31D0008F31D0008F0
:1000B000F31D0008F31D0008F31D0008F31D0008E0
:1000C000F31D0008F31D0008F31D0008F31D0008D0
:1000D000F31D0008F31D0008051D0008F31D0008AE
:1000E000F31D0008F31D0008F31D0008F31D0008B0
:1000F000F31D0008F31D0008F31D0008F31D0008A0
:10010000F31D0008F31D0008F31D0008F31D00088F
:10011000F31D0008F31D0008F31D0008F31D00087F
:10012000F31D0008F31D0008F31D0008F31D00086F
:1001300000F002F800F090F80AA090E8000C824469
:100140008344AAF10107DA4501D100F085F8AFF246
:10015000090EBAE80F0013F0010F18BFFB1A43F0A5
:10016000010318473061000050610000103A24BFBD
:1001700078C878C1FAD8520724BF30C830C144BF0C
:1001800004680C607047000000230024002500264E
:10019000103A28BF78C1FBD8520728BF30C148BFEA
:1001A0000B6070476E2903F06384702903F0A58506
:1001B000662905F0EC87652905F0E987672905F0D0
:1001C000E687612905F0E58703681B0A28BF41F02F
:1001D0008001692903F01084642903F00D847529D6
:1001E00003F00A846F2903F03385782903F07185C1
:1001F000E92903F0CD84E42903F0CA84F52903F04A
:10020000C784EF2903F03085F82903F0708503686F
:10021000DB0928BF41F08001632904F07182732952
:1002200004F07682E32904F08182F32904F08682C7
:10023000002070471FB504F0D3FA0400002000210D
:1002400004F0C2FF401C60600020002104F0A6FF03
:10025000E0601FBD10B510BD04F094FA1146FFF721
:10026000E9FF00F019F804F06DFB03B4FFF7F2FFAB
:1002700003BC04F0B5FB00004648007850B946487E
:10028000007838B94548007820B94548007808B961
:10029000002070470120FCE74FF4A06001F0BCFD96
:1002A00001F0B6F901F0E0F94FF4E13001F026FC7D
:1002B00001F05AF900F096FF00F006FF68E0FFF742
:1002C000DBFF384908600846006808B900F06AF9A1
:1002D0003448006801285BD130480078102805D1E7
:1002E0004FF4FA529621012000F097FF2C48007835
:1002F000202805D14FF4FA529621002000F08DFFFE
:1003000024480078012801D100F07BF921480078C9
:10031000022801D100F0A5F91E480078042801D177
:1003200000F0CFF91B480078082801D100F0F8F957
:1003300018480078042801D100F021FA1548007807
:10034000082801D100F04AFA12480078102801D19B
:1003500000F073FA0F480078202801D100F09CFAD1
:100360000D480078012801D100F0C5FA0A4800784C
:10037000042801D100F0F0FA08480078102801D1D3
:1003800000F029FB06480078102801D100F052FB4C
:1003900095E700000000002001000020020000207E
:1003A0000300002008000020704700BFFEE700BFE8
:1003B000FEE700BFFEE700BFFEE7704770477047EB
:1003C000704700000CB50020019000906C48006858
:1003D00040F480306A49086000BF6948006800F452
:1003E000003000900198401C0190009818B90198C5
:1003F000B0F5A06FF1D16248006800F4003010B190
:100400000120009001E0002000900098012843D1D5
:100410005C48006840F010005A49086008460068CF
:1004200020F0030008600846006840F00200086001
:10043000534840685249486008464068486008464A
:10044000406840F4806048600846406820F47C10B2
:1004500048600846406840F4E81048600846006874
:1004600040F08070086000BF4548006800F00070F0
:100470000028F9D04248406820F003004049486015
:100480000846406840F00200486000BF3C484068B1
:1004900000F00C000828F9D10CBD10B5FFF792FF51
:1004A00010BD10B53648006840F0010034490860BE
:1004B00008464068344908403149486008460068A9
:1004C000324908402E4908600846006820F4802020
:1004D00008600846406820F4FE0048604FF41F00A2
:1004E0008860FFF7DAFF4FF000602949086010BD0F
:1004F00010B5002100200022214B5B6803F00C01A5
:1005000021B1042906D0082928D107E0214B224C2B
:10051000236027E01F4B204C236023E0184B5B68CF
:1005200003F47010164B5B6803F48032022303EB74
:10053000904022B9194B4343174C23600DE0104BF8
:100540005B6803F4003323B1144B4343124C236024
:1005500003E0104B4343104C236003E00D4B0E4C63
:10056000236000BF00BF064B5B68C3F303130C4C52
:10057000E15C094B1B68CB40074C236010BD0000B9
:1005800000100240002002400000FFF8FFFFF6FECE
:1005900008ED00E000127A001000002000093D0084
:1005A0001400002010B5FE4800F096FE002000F078
:1005B00073FE002000F0B0FEF94800F0CEFE0020EF
:1005C00000F031FF002000F03DFF002000F049FF67
:1005D000002000F056FF002000F009FF002000F08E
:1005E00014FF002000F05DFF002000F069FF0020F4
:1005F00000F075FF002000F090FF002000F07EFF6B
:1006000010BD10B5E64800F067FE002000F044FE83
:10061000002000F081FEE24800F09FFE002000F084
:1006200002FF002000F00EFF002000F01AFF002063
:1006300000F027FFDB4800F0DAFE4FF0804000F0CA
:10064000E4FE002000F02DFF002000F039FF002024
:1006500000F045FFD44800F060FF002000F04EFF9E
:1006600010BD10B5CE4800F037FE002000F014FE9B
:10067000002000F051FECA4800F06FFE002000F09C
:10068000D2FE002000F0DEFE002000F0EAFE002096
:1006900000F0F7FEC34800F0AAFE4FF0804000F0E3
:1006A000B4FE002000F0FDFE002000F009FF002055
:1006B00000F015FFBD4800F030FF002000F01EFFE5
:1006C00010BD10B5B64800F007FE002000F0E4FDB4
:1006D000002000F021FEB24800F03FFE002000F0B4
:1006E000A2FE002000F0AEFE002000F0BAFE0020C6
:1006F00000F0C7FE002000F07AFE002000F085FE2A
:10070000002000F0CEFE002000F0DAFEA64800F047
:10071000E6FE002000F001FFA44800F0EFFE10BD4F
:1007200010B59F4800F0D8FD002000F0B5FD002076
:1007300000F0F2FD9A4800F010FE002000F073FE79
:10074000002000F07FFE002000F08BFE002000F073
:1007500098FE002000F04BFE002000F056FE002026
:1007600000F09FFE002000F0ABFE904800F0B7FEC6
:10077000002000F0D2FE8C4800F0C0FE10BD10B585
:10078000874800F0A9FD002000F086FD002000F061
:10079000C3FD834800F0E1FD002000F044FE00208E
:1007A00000F050FE002000F05CFE002000F069FE2A
:1007B000002000F01CFE002000F027FE002000F0CA
:1007C00070FE002000F07CFE774800F088FE0020DC
:1007D00000F0A3FE744800F091FE10BD10B5704803
:1007E00000F07AFD002000F057FD002000F094FD9D
:1007F0006B4800F0B2FD002000F015FE002000F074
:1008000021FE002000F02DFE002000F03AFE002026
:1008100000F0EDFD002000F0F8FD002000F041FEAA
:10082000002000F04DFE614800F059FE002000F06D
:1008300074FE5E4800F062FE10BD10B5584800F02E
:100840004BFD002000F028FD002000F065FD54481D
:1008500000F083FD564800F0E6FD554800F0F2FD3B
:10086000534800F0FEFD524800F00BFE002000F05F
:10087000BEFD002000F0C9FD4B4800F012FE4B48C1
:1008800000F01EFE002000F02AFE002000F045FED1
:10089000002000F033FE10BD10B5414800F01CFDF3
:1008A000002000F0F9FC002000F036FD3C4800F08C
:1008B00054FD3F4800F0B7FD3D4800F0C3FD3C4803
:1008C00000F0CFFD3A4800F0DCFD002000F08FFD85
:1008D000002000F09AFD354800F0E3FD324800F0BA
:1008E000EFFD002000F0FBFD002000F016FE0020D0
:1008F00000F004FE10BD10B5294800F0EDFC2D48B5
:1009000000F0CAFC002000F007FD254800F025FD9E
:10091000244800F088FD4FF07E5000F093FD214800
:1009200000F09FFD4FF07E5000F0ABFD002000F086
:100930005EFD002000F069FD002000F0B2FD002007
:1009400000F0BEFD002000F0CAFD002000F0E5FD33
:10095000002000F0D3FD10BD10B5114800F0BCFC24
:10096000002000F099FC134800F0D6FC0C4800F081
:10097000F4FC4FF07E5000F056FD0A4800F062FD96
:100980004FF07E5000F06DFD064800F07AFD00202B
:1009900000F02DFD002000F038FD00200CE00000EC
:1009A00000000C42000080BF0000A0C00000A0407A
:1009B0000AD7233C0000074300F073FD002000F03D
:1009C0007FFD002000F08BFD002000F0A6FD002040
:1009D00000F094FD10BD10B55D4800F07DFC0020D6
:1009E00000F05AFC002000F097FC5A4800F0B5FCDB
:1009F000002000F018FD002000F024FD002000F091
:100A000030FD002000F03DFD002000F0F0FC002053
:100A100000F0FBFC002000F044FD002000F050FD41
:100A2000002000F05CFD002000F077FD002000F0C9
:100A300065FD10BD10B5474800F04EFC002000F0E9
:100A40002BFC002000F068FC414800F086FC0020F0
:100A500000F0E9FC002000F0F5FC002000F001FDB2
:100A6000002000F00EFD002000F0C1FC002000F08E
:100A7000CCFC002000F015FD002000F021FD00203E
:100A800000F02DFD002000F048FD002000F036FDB4
:100A900010BD10B52F4800F01FFC002000F0FCFB3B
:100AA000002000F039FC2B4800F057FC002000F03B
:100AB000BAFC002000F0C6FC002000F0D2FC0020B0
:100AC00000F0DFFC002000F092FC002000F09DFC14
:100AD000002000F0E6FC002000F0F2FC002000F016
:100AE000FEFC002000F019FD002000F007FD10BD05
:100AF00010B5184800F0F0FB002000F0CDFB0020FE
:100B000000F00AFC134800F028FC002000F08BFCE9
:100B1000002000F097FC002000F0A3FC002000F073
:100B2000B0FC002000F063FC002000F06EFC002010
:100B300000F0B7FC002000F0C3FC002000F0CFFC68
:100B4000002000F0EAFC002000F0D8FC10BD0000FE
:100B50000000C84200000C4210B500F0CCFEEC20B2
:100B600000F0E2FE00F02AFF1E2000F0DDFE00F0A3
:100B700025FF00F0CEFE10BD38B50446002500F07C
:100B8000BAFEEC2000F0D0FE00F018FF204600F086
:100B9000CBFE00F013FF00F0BCFE0A2000F095FF32
:100BA00000F0A9FEEC2000F0BFFE00F007FF0020DF
:100BB00000F0BAFE00F002FF00F0ABFE00F09BFE7A
:100BC000ED2000F0B1FE00F0F9FE012000F03DFF45
:100BD0008DF80000012000F038FF8DF801000020A2
:100BE00000F033FF8DF8020000F093FE9DF8000046
:100BF00001049DF8010001EB00209DF8021045184A
:100C0000284638BD2DE9F04F87B04FF0000A482044
:100C1000FFF7B2FFFE4908605820FFF7ADFFFD491E
:100C20000860FD4840690968B1EB002F55D9FA48C2
:100C30004069F8490968A1EB00200021F74A03C286
:100C4000F5488069F54B0CCBA0FB024701FB027114
:100C500000FB03114FF400020023204602F0DCFDEC
:100C60004FF4FA63C01841F10001ED4A03C2EA48AB
:100C700000690023E949D1E90021A0FB024803FBF8
:100C8000028201FB00218022204602F0C5FDE24ADB
:100C900012891204861841F10001304604F0EAFC82
:100CA000E04A03C2DC48C0680022DC49D1E90031D7
:100CB000A0FB034702FB037201FB00214FF480728B
:100CC0000023204602F0A8FDD34A5268D2038018C0
:100CD00041F10001D44A03C257E0CF484069CD49F1
:100CE0000968C1EB00200021CC4A03C2CA488069D0
:100CF0000023CA4944C9A0FB024703FB027200FB60
:100D000006214FF40002204602F086FD4FF4FA63FC
:100D10000022181A62EB0102C14905C1BE480069F0
:100D20000022BE49D1E90031A0FB034802FB038247
:100D300001FB002180220023204602F06DFDB64A0F
:100D4000128912040023161A63EB0101304604F0E5
:100D500091FCB44A03C2B048C0680022AF4948C9F8
:100D6000A0FB034702FB037200FB06214FF48072D5
:100D70000023204602F050FDA74A5268D203002308
:100D8000101A63EB0103A84909C1A548D0E9002066
:100D90004FF4FA63D21A70F1000048D2A0481C4602
:100DA00060C80020611B60EB0600A1FB012500FB71
:100DB000015501FB0051104605F011F89B490860F0
:100DC0009648D0E90010A1FB012300FB013301FB91
:100DD000003003230026A2FB034700FB037002FB45
:100DE000060132460223204602F016FD90490860B3
:100DF0008E4801688F4805F057F805464FF080414E
:100E000004F00CFF044604F0CBFF8B4908608748D0
:100E100001688A4805F048F805464FF0824104F021
:100E2000FDFE044604F0BCFF854908603CE07C48B8
:100E3000D0E900104FF4FA65491B60F10000A1FBF6
:100E4000012500FB015501FB0051104604F0C7FFCE
:100E500076490860714903C9A0FB002301FB0033F8
:100E600000FB013102230026A2FB034701FB0371B3
:100E700002FB061132462023204602F0CDFC6C49CD
:100E800008606A4801684FF07E5005F00DF805468D
:100E90004FF0834104F0C2FE044604F081FF66492E
:100EA00008600020664908606348006804F0CFFBD2
:100EB00004465C480CC8204604F020FD594A03C291
:100EC0005948D0E900305E490968591A60F10000BC
:100ED000554AC2E900105248D0E900305449096827
:100EE0005C1A60F1000164220023204602F094FCA9
:100EF0004B4A03C24648006800234B49D1E9002C05
:100F0000A0FB026B03FB02B200FB0C214FF40012AA
:100F1000304602F081FCCDE9000104F0ABFBCDE9E5
:100F2000020140480CC8029804F0F4FC0446002278
:100F3000444B04F007FA0022434BCDE9040104F0CE
:100F400001FA804604F056FB404908600968404AAF
:100F50001268881A04F07BFB06463E4A3E4B04F0BA
:100F6000F1F9044604F046FB3C4908604FF0000AE2
:100F700025E02B4903C904F07DFB044638480CC822
:100F8000204604F037F9364A03C23048006804F0BE
:100F90005EFB044633480CC8204604F02BF9314A66
:100FA00003C22E48006804F052FB04462E480CC8C9
:100FB000204604F01FF92C4A03C20AF1010ABAF1D3
:100FC000050FD6DB0022294B254903C904F0BAF9E5
:100FD000234A03C20022254B224903C904F0B2F977
:100FE000204A03C22248006804F07EFD04461D48E2
:100FF0000CC8204604F082FC0646164A164B04F044
:10100000A1F9194A03C21B48006804F020FB33E031
:101010005000002054000020DC0000203800002098
:101020004000002028000020480000203000002060
:101030005C00002000004040600000200000A04054
:10104000640000200000C040000024406800002030
:101050006C0000207D5C1B2AC679EF3F70000020E9
:101060008000002088000020900000200000144034
:10107000980000207800002004464F480CC8204605
:1010800004F03CFC064604F0B5FA4C490860002028
:101090004B490860484903C904F0ACFA4849486024
:1010A000484903C904F0A6FA45498860464903C97E
:1010B00004F0A0FA4249C860404800680861FF2077
:1010C000886107B0BDE8F08F70B500F0F8FBFFF75E
:1010D00043FD282000F0F9FC012431E000F00BFC76
:1010E000EC2000F021FC00F069FCA02101EB4401A0
:1010F000C8B200F019FC00F061FC00F00AFC052009
:1011000000F0E3FC00F0F7FBED2000F00DFC012007
:1011100000F0DBFC00F052FC012000F096FC0546DC
:10112000012000F0D2FC002000F08FFC064600F009
:10113000F0FB46EA0520254941F82400601CC4B2B2
:10114000062CCBDDFFF75EFD70BD2DE9F05F8A4612
:101150009346FFF757FD1E48006804F0C5FC04469F
:10116000DAE90063324604F0C9FB8046194A1A4B9B
:1011700004F0E8F8CBE90001BDE8F09F70470020DB
:1011800000BF06E00E4951F82010144A42F8201022
:10119000401C0728F6DB0A498968114A116070472C
:1011A000002006E00D4951F82010054A42F82010B1
:1011B000401C0728F6DB7047880000207C000020D8
:1011C000F80000209000002080000020DC000020BB
:1011D0009C0000207D5C1B2AC679EF3F1401002093
:1011E0007800002008B50121042001F09FF930208B
:1011F000ADF8000010208DF8030003208DF80200E8
:101200006946224800F0D6FE1021204800F081FFF8
:1012100020211E4800F07DFF08BD2DE9F041044665
:101220000D4616461021194800F064FF1849086061
:101230002021164800F05EFF1649086014B1012C09
:101240000AD104E01021114800F061FF05E01021EF
:101250000E4800F05EFF00E000BF00BF00270BE07B
:10126000304600F01BFC09480C30006880F020007C
:1012700006490C3108607F1C05EBC50000EB05102A
:10128000B7EBC01FECD9BDE8F081000000080140B9
:10129000A4000020A00000202DE9F14F82B00298A8
:1012A00004F022FC80460022A34B04F04BF80646D3
:1012B0000022A24B04F024FA04460022A04B03F0C3
:1012C00099FF824604F096F980B201909D480199F9
:1012D00002F058F8BDE8FE8F2DE9F14F82B0029878
:1012E00004F002FC80460022934B04F02BF80646E3
:1012F0000022924B04F004FA04460022904B03F0C3
:1013000079FF824604F076F980B201908D48019908
:1013100002F03AF8BDE8FE8F2DE9F14F82B0029855
:1013200004F0E2FB80460022834B04F00BF80646F3
:101330000022824B04F0E4F904460022804B03F0C3
:1013400059FF824604F056F980B201904FF0804078
:10135000019902F017F8BDE8FE8F2DE9F14F82B038
:10136000029804F0C1FB80460022734B03F0EAFFB1
:1013700006460022714B04F0C3F904460022704B6C
:1013800003F038FF824604F035F980B201904FF047
:101390008040019901F0F8FFBDE8FE8F2DE9F04192
:1013A00007466949384604F04BFD00D2664F67494D
:1013B000384604F045FE00D2644F654C654D294621
:1013C000384604F071FD8046214604F0B9FB06461C
:1013D0006149304604F034FD00D25F4E5F4930462B
:1013E00004F02EFE00D25D4E3046BDE8F08170B5AF
:1013F00004462046FFF7D2FF064604F0D1FC85B232
:101400002946574801F0BEFF70BD70B5044620461E
:10141000FFF7C4FF064604F0C3FC85B229465048D6
:1014200001F0B2FF70BD70B504462046FFF7B6FF6D
:101430000646304604F0B4FC85B22946414801F026
:10144000A5FF70BD70B504462046FFF7A7FF06460E
:10145000304604F0A5FC85B229463A4801F098FFD1
:1014600070BD70B504462046FFF798FF064630462B
:1014700004F096FC85B229464FF0804001F086FFCB
:1014800070BD70B504462046FFF788FF064630461B
:1014900004F086FC85B229464FF0804001F078FFC9
:1014A00070BD70B504462046FFF778FF064630460B
:1014B00004F076FC85B229462A4801F065FF70BD2C
:1014C00070B504462046FFF769FF0646304604F033
:1014D00067FC85B22946224801F05AFF70BD70B5FD
:1014E00004462046FFF75AFF0646304604F058FCF3
:1014F00085B229461B4801F045FF70BD70B5044612
:101500002046FFF74BFF0646304604F049FC85B203
:101510002946144801F03AFF70BD70B504462046D4
:10152000FFF73CFF0646304604F03AFC85B22946F8
:101530000C4801F02DFF70BD0080664000409F40C8
:1015400000407F40002C01400000A0C00000A040EF
:101550000040BA440000C8420000484400800945E9
:10156000000400400008004070B540F2DC56002442
:101570004CF25035344600BF00E06D1E002DFCD10A
:101580004CF25035A1B2204801F0FCFEA1B21E4839
:1015900001F0FAFEA1B21C4801F0F8FEA1B21A480F
:1015A00001F0F6FEA1B2194801F0F0FEA1B2174811
:1015B00001F0EEFE641EA6F16400A042DCDB00BF79
:1015C00000E06D1E002DFCD14CF25035A1B20E484A
:1015D00001F0D8FEA1B20C4801F0D6FEA1B20A4833
:1015E00001F0D4FEA1B2084801F0D2FEA1B2074832
:1015F00001F0CCFEA1B2054801F0CAFE641C06F55C
:1016000096708442DCDB70BD00080040000400409E
:1016100008B501210D2000F089FF18208DF8030086
:1016200040F6CF70ADF8000003208DF80200694647
:101630000A4800F0BFFC0121094800F08CFD182089
:101640008DF8030040F6C270ADF8000003208DF85D
:1016500002006946034800F0ADFC08BD00080140E7
:1016600040001600000C014000B587B00121C802FF
:1016700000F05CFF0121084600F065FF0121022017
:1016800000F061FF0121042000F05DFF0121084608
:1016900000F04CFF0121754800F05DFD0020ADF821
:1016A0001600ADF8120044F61F60ADF81400472094
:1016B000ADF8100000208DF8180004A96C4801F066
:1016C0006DF804A94FF0804001F068F80020ADF8F3
:1016D0001600ADF8120040F2CF70ADF814004720AC
:1016E000ADF8100000208DF8180004A9614801F041
:1016F00055F804A9604801F051F87020ADF80000D9
:101700000020ADF80C000220ADF808000120ADF873
:1017100002000020ADF806006946554801F07BF84C
:101720006946534801F0B9F86946514801F002F999
:1017300069464F4801F049F969464FF0804001F091
:101740006AF869464FF0804001F0A7F869464FF00B
:10175000804001F0EFF869464FF0804001F035F924
:101760006946444801F057F86946424801F095F847
:101770006946404801F0DEF869463E4801F025F927
:1017800069463D4801F047F869463B4801F085F855
:101790006946394801F0CEF86946374801F015F935
:1017A0000821334801F086FC0821314801F08BFC08
:1017B00008212F4801F094FC08212D4801F099FCE4
:1017C0000821C80601F076FC0821C80601F07BFC60
:1017D0000821C80601F084FC0821C80601F089FC34
:1017E0000821244801F066FC0821224801F06BFC26
:1017F0000821204801F074FC08211E4801F079FC02
:1018000008211D4801F056FC08211B4801F05BFC33
:101810000821194801F064FC0821174801F069FC0F
:101820000121134801F016FC0121880701F012FC88
:101830000121104801F00EFC01210F4801F00AFCC3
:1018400001210B4801F012FB0121094801F002FBC4
:101850000121880701F0FEFA0121064801F0FAFA99
:101860000121054801F0F6FA07B000BD000218009A
:10187000002C0140000400400008004010B5044660
:1018800022461021834800F046FC0A2000F006F9A9
:1018900010BD10B50446224608217E4800F03BFCEE
:1018A0000A2000F0FBF810BD10B508217A4800F0BE
:1018B00014FC04460A2000F0F1F8204610BD08B5DB
:1018C0000121082000F032FE1820ADF800001020A1
:1018D0008DF8030003208DF8020069466D4800F082
:1018E00069FB0120FFF7CAFF0120FFF7D2FF0120AB
:1018F00000F0EBF808BD10B50120FFF7CAFF01208A
:10190000FFF7BCFF0020FFF7C4FF0020FFF7B6FF82
:1019100010BD10B50020FFF7BCFF0120FFF7AEFFA0
:101920000120FFF7B6FF10BD70B5054600240DE09D
:101930008021214101EA0500FFF7ABFF0120FFF7FD
:101940009DFF0020FFF79AFF601CC4B2082CEFDB5C
:1019500070BD70B500250120FFF79BFF00240EE04D
:101960000120FFF78BFFFFF79FFF012802D18020A6
:10197000204105430020FFF781FF601CC4B2082C02
:10198000EEDB284670BD10B504462046FFF781FF08
:101990000120FFF773FF0020FFF770FF10BD10B5A7
:1019A0000120FFF776FF0120FFF768FFFFF77CFFBC
:1019B00004460020FFF762FF204610BD10B500244A
:1019C0000120FFF766FF012000F07FF80120FFF7FC
:1019D00055FF012000F079F807E0601CC4B2FA2C32
:1019E00003DDFFF796FF012010BDFFF75DFF002824
:1019F000F3D1FFF743FF0020F6E710B50020FFF713
:101A00003DFF0020FFF745FF022000F05EF80120B7
:101A1000FFF734FF022000F058F80020FFF72EFFF8
:101A200010BD10B50020FFF729FF0120FFF731FF9F
:101A3000022000F04AF80120FFF720FF022000F00A
:101A400044F80020FFF71AFF10BD70B505460024CA
:101A5000002614E00020FFF711FF022000F035F807
:101A60000120FFF70BFF6006040EFFF71DFF08B112
:101A7000601CC4B2012000F028F8701CC6B2082E09
:101A8000E8DB15B9FFF7CDFF01E0FFF7B6FF204611
:101A900070BD0000000C01400008014000EBC001D7
:101AA000C9004FF0E02251610021916105211161CF
:101AB00000BF4FF0E021096901F480310029F8D01E
:101AC00004214FF0E0221161704700B5034603E0A6
:101AD0004FF47A70FFF7E2FF181EA3F10103F7D16C
:101AE00000BD10B5044603E04FF47A70FFF7EDFF38
:101AF000201EA4F10104F7D110BD000010B586B07E
:101B000004460121480400F01EFD0121042000F0DC
:101B10000DFD0420ADF8140003208DF816001820E8
:101B20008DF8170005A99D4800F044FA0820ADF88B
:101B3000140004208DF8170005A9984800F03AFA1F
:101B400026208DF8000003208DF801008DF802009A
:101B500001208DF80300684600F063F9019400202D
:101B6000ADF80800ADF80A00ADF80C00ADF81000B3
:101B70000C20ADF80E0001A9894801F08CFC01226F
:101B800040F22551864801F01EFD0121844801F0F4
:101B90000EFD06B010BD10B504462146804801F088
:101BA00073FD00BF80217E4801F0DCFD0028F9D0E4
:101BB00010BD70B505460E46002404E0285DFFF711
:101BC000EAFF601C84B2B442F8DB70BD70B5044615
:101BD000002504E0605DFFF7DEFF681CC5B2605DB4
:101BE0000028F7D170BD10B50246012000E0504337
:101BF0000B1EA1F10101FAD110BD2DE9F0410646FD
:101C00000C46002512E0601B411E0A20FFF7EBFF87
:101C1000B6FBF0F00A21B0FBF1F201FB120000F17B
:101C200030073846FFF7B7FF681CC5B2A542EADBAC
:101C3000BDE8F08170B504460D46E0B2FFF7ABFF9A
:101C4000204670BD0FB400B59BB01DA8019002A83E
:101C5000019A1C9901F058FE0020019002A8FFF79C
:101C6000B5FF1BB05DF814FB4E480078012804D185
:101C700000204C490870012070470020FCE74A48CA
:101C800000787047002004E04849095C484A115434
:101C9000401C0728F8DB4648407840B94448807823
:101CA00028B94348C07810B94148007980B140480C
:101CB0004078404908703E4800793F4908703C48E8
:101CC00080783E4908703A48C0783D49087008E07D
:101CD0000020384908703849087038490870384978
:101CE00008707047002004E03649095C364A1154F8
:101CF000401C0428F8DB7047002034490860344950
:101D00000870704710B540F22551254801F040FD9C
:101D1000002842D0224801F0BBFCC4B240F2255159
:101D20001F4801F05FFDA52C06D10120284908704D
:101D300000202649086004E07B2C02D101202549BF
:101D400008702348007870B120480068FF2808D840
:101D50001E4801680068401C1C4A10601348445427
:101D600001E0FFF7C9FF1A48007808B9FFF7BAFF8A
:101D70001848007801280AD115480078012806D1B2
:101D8000FFF780FF0020124908701249087040F2E6
:101D90002551034801F026FD00BF10BD0008014099
:101DA00000440040A9000020A800002030010020CD
:101DB000B2000020000000200100002002000020EE
:101DC00003000020C0000020B9000020AC0000206B
:101DD000B0000020B10000200948804709480047B2
:101DE000FEE7FEE7FEE7FEE7FEE7FEE7FEE7FEE7CB
:101DF000FEE7FEE704480549054A064B7047000028
:101E0000A30400083101000890020020900800207F
:101E1000900400209004002031490143314A1160B0
:101E2000704770B5002100230F22C47804B32D4CF5
:101E3000246804F4E064C4F5E064210AC1F10403F9
:101E4000CA40447804FA03F184781440214309011C
:101E5000254C0678A155047804F01F050124AC40F8
:101E600005786D11AD0005F1E025C5F8004109E0E8
:101E7000047804F01F050124AC401C4D067876114F
:101E800045F8264070BD1A4A0A400243154B1B1FF5
:101E90001A60704739B1134A121D12680243114B80
:101EA0001B1D1A6006E00F4A121D126882430D4B7B
:101EB0001B1D1A607047042808D14FF0E021096902
:101EC00041F004014FF0E022116107E04FF0E02102
:101ED000096921F004014FF0E02211617047000010
:101EE0000000FA050CED00E000E400E080E100E015
:101EF00080FFFF1F10B50446CC48844208D1012161
:101F0000042000F02DFB0021042000F029FB46E016
:101F1000C748844208D10121082000F021FB00219C
:101F2000082000F01DFB3AE0C248844208D101219C
:101F3000102000F015FB0021102000F011FB2EE016
:101F4000BD48844208D10121202000F009FB002176
:101F5000202000F005FB22E0B848844208D101218E
:101F6000402000F0FDFA0021402000F0F9FA16E0D0
:101F7000B348844208D10121802000F0F1FA002109
:101F8000802000F0EDFA0AE0AE48844207D101213A
:101F9000801500F0E5FA0021A01500F0E1FA10BD6F
:101FA00010B50121084600F0DBFA0021012000F005
:101FB000D7FA10BD2DE9F041024600250026002089
:101FC00000230024002791F803C00CF00F0591F8BE
:101FD00003C00CF0100CBCF1000F03D091F802C04C
:101FE0004CEA050591F800C0BCF1000F31D014682F
:101FF00000202BE04FF0010C0CFA00F3B1F800C008
:102000000CEA03069E4220D183004FF00F0C0CFA1D
:1020100003F7BC4305FA03FC4CEA040491F803C03F
:10202000BCF1280F06D14FF0010C0CFA00FCC2F8ED
:1020300014C00AE091F803C0BCF1480F05D14FF07D
:10204000010C0CFA00FCC2F810C0401C0828D1D3C7
:102050001460B1F800C0BCF1FF0F34DD54680020FB
:102060002EE000F1080C4FF0010808FA0CF3B1F86B
:1020700000C00CEA03069E4221D183004FF00F0CF2
:102080000CFA03F7BC4305FA03FC4CEA040491F88C
:1020900003C0BCF1280F05D100F1080C08FA0CF8B8
:1020A000C2F8148091F803C0BCF1480F07D100F1C9
:1020B000080C4FF0010808FA0CF8C2F81080401C18
:1020C0000828CED35460BDE8F0814FF6FF7101803F
:1020D000022181700421C17070470246002093687C
:1020E0000B400BB1012000E00020704701468868DA
:1020F00080B2704702460020D3680B400BB101202C
:1021000000E0002070470146C86880B27047016156
:102110007047416170470AB1016100E04161704759
:10212000C16070474FF480320A43826181618261ED
:1021300082698269704702460020434B18684FF657
:102140008073184040EA021008433F4B1860704704
:102150003E49C8617047F0B50A46002300240021BB
:10216000002500F00046B6F1004F02D1364EF1696D
:1021700001E0354E7168C0F3034583B200F44016A8
:10218000B6F5401F08D121F070612F4E766826F019
:1021900070662D4F7E6012E000F48016B6F5801F49
:1021A00006D1032606FA05F4A14341F0706106E06A
:1021B000460D360103FA06F6B14341F0706122B1D3
:1021C000460D360103FA06F6314300F00046B6F13B
:1021D000004F02D11C4EF16101E01B4E7160F0BD59
:1021E00030B500228B071C0F0F2303FA04F2164BA5
:1021F00008338C1053F824309343134C08348D105B
:1022000044F8253023468C1053F824308C07240FD3
:1022100000FA04F423430C4C08348D1044F82530A4
:1022200030BD0A49DC3108607047000000080140F9
:10223000000C014000100140001401400018014052
:10224000001C01400020014000000140000020422D
:10225000DF48006840F00100DD490860084640683A
:10226000DC490840DA49486008460068DA49084015
:10227000D74908600846006820F4802008600846B6
:10228000406820F4FE0048604FF41F0088607047EB
:10229000CF49096821F48031CD4A1160114609689F
:1022A00021F480211160B0F5803F03D0B0F5802F7C
:1022B0000ED106E0C649096841F48031C44A116074
:1022C00007E0C349096841F4A021C14A116000E058
:1022D00000BF00BF704710B5014600220023002058
:1022E0004A11012A02D1BA4C236806E0022A02D11F
:1022F000B74C236A01E0B64C636A01F01F02012467
:1023000094401C400CB1012000E0002010BD38B505
:10231000002000900024002500BF3120FFF7DBFFE4
:1023200005460098401C00900098B0F5A06F01D0C1
:10233000002DF2D03120FFF7CEFF08B1012400E0DC
:102340000024204638BD01460020A14A106820F034
:10235000F80040EAC10010607047A049086070476B
:10236000024600209A4B586820F47C1042EA010390
:102370001843974B58607047984908667047014664
:102380000020934A506820F00300084350607047D3
:102390008F48406800F00C007047014600208C4ACE
:1023A000506820F0F000084350607047014600205C
:1023B000874A506820F4E060084350607047014647
:1023C0000020834A506820F4605040EAC100506009
:1023D000704729B17E4A527A02437D4B5A7204E01B
:1023E0007B4A527A82437A4B5A7270477B49D83182
:1023F0000860704701460020754A506820F440404C
:102400000843506070470021714A20321170704AB1
:1024100082F82010012802D004280AD104E001210A
:102420006B4A2032117005E00521694A2032117093
:1024300000E000BF00BF7047694908607047644909
:10244000096A0143624A116270476549443908606C
:10245000704730B500210022002400235C4D6D68D8
:1024600005F00C0121B1042905D0082923D105E08C
:102470005C4D056022E05B4D05601FE0544D6D68CA
:1024800005F47012524D6D6805F48034022505EB99
:1024900092421CB9544D554305600BE04C4D6D689C
:1024A00005F400351DB1504D5543056002E04D4D1A
:1024B0005543056002E04B4D056000BF00BF444D31
:1024C0006D6805F0F0010909484D6B5C0568DD4059
:1024D00045603F4D6D6805F4E061090A434D6B5C52
:1024E0004568DD4085603A4D6D6805F46051C90A64
:1024F0003E4D6B5C4568DD40C560354D6D6805F44B
:102500004041890B3A4D6B5CC568B5FBF3F505613D
:1025100030BD29B12E4A526902432D4B5A6104E065
:102520002B4A526982432A4B5A61704729B1284A83
:1025300092690243264B9A6104E0254A92698243DC
:10254000234B9A61704729B1214AD2690243204B3B
:10255000DA6104E01E4AD26982431D4BDA6170479A
:1025600029B11B4AD2680243194BDA6004E0184AC9
:10257000D2688243164BDA60704729B1144A126957
:102580000243134B1A6104E0114A12698243104B53
:102590001A61704712494039086070470F49C86492
:1025A00070470B49C87170470948406A40F0807015
:1025B00007494862704701460020054A92680A4070
:1025C0000AB1012000E0002070470149887270477D
:1025D000001002400000FFF8FFFFF6FE000042423C
:1025E0008004424200127A0000093D00C70000202A
:1025F000D700002010B50446FE48844208D10121CE
:10260000C014FFF7ADFF0021E014FFF7A9FFC4E0FD
:10261000B4F1804F08D101210846FFF7AEFF002139
:102620000120FFF7AAFFB8E0F348844208D1012156
:102630000220FFF7A2FF00210220FFF79EFFACE07F
:10264000EE48844208D101210420FFF796FF0021C3
:102650000420FFF792FFA0E0E948844208D101215D
:102660000820FFF78AFF00210820FFF786FF94E08B
:10267000E448844208D101211020FFF77EFF0021A9
:102680001020FFF77AFF88E0DF48844208D101215B
:102690002020FFF772FF00212020FFF76EFF7CE073
:1026A000DA48844208D101214014FFF759FF002184
:1026B0006014FFF755FF70E0D548844209D101212D
:1026C000C804FFF74DFF00214FF40020FFF748FF3B
:1026D00063E0D048844209D101210805FFF740FF9B
:1026E00000214FF48010FFF73BFF56E0CA488442B8
:1026F00009D101214805FFF733FF00214FF40010F5
:10270000FFF72EFF49E0C548844208D1012140204F
:10271000FFF733FF00214020FFF72FFF3DE0C048C7
:10272000844208D101218020FFF727FF002180206B
:10273000FFF723FF31E0BB48844208D10121801517
:10274000FFF71BFF0021A015FFF717FF25E0B64894
:10275000844209D101210804FFF702FF00214FF450
:102760008030FFF7FDFE18E0B048844209D1012116
:102770004804FFF7F5FE00214FF40030FFF7F0FEAC
:102780000BE0AB48844208D101218804FFF7E8FE42
:1027900000214FF48020FFF7E3FE10BD00220288E5
:1027A000944B98420ED0994B98420BD0B0F1804F89
:1027B00008D0914B984205D0904B984202D0904B54
:1027C000984204D14FF68F731A404B881A438D4BB1
:1027D000984207D08C4B984204D04FF6FF431A40E2
:1027E000CB881A4302808B8883850B880385814BB5
:1027F00098420BD0854B984208D08B4B984205D01D
:102800008A4B984202D08A4B984201D10B7A0386B8
:1028100001238382704770B5002400220023058CB9
:102820004FF6FE7635400584028C8388048B4FF684
:102830008F752C40B51E2C400D882C43751E2A40E8
:102840000D892A434D882A436A4DA8420BD06F4D0B
:10285000A84208D0744DA84205D0744DA84202D0B9
:10286000734DA84213D14FF6F7752A404D892A437C
:102870004FF6FB752A408D882A434FF6FF652B40A3
:102880004FF6FF552B408D892B43CD892B438380F9
:102890000483CD888586028470BD70B50024002233
:1028A0000023058C4FF6EF7635400584028C838833
:1028B000048B48F6FF752C404FF6FF452C400D88E1
:1028C0004FF6FF7606EA05252C434FF6DF752A40C2
:1028D0000D8906EA05152A434D8806EA05152A439F
:1028E000444DA84202D0494DA8421DD14FF67F75F4
:1028F0002A404D894FF6FF7606EA05152A434FF622
:10290000BF752A408D8806EA05152A434FF6FF3524
:102910002B404FF2FF752B408D8906EA85052B432E
:10292000CD8906EA85052B4383800483CD880587FE
:10293000028470BD70B5002400220023058C4FF680
:10294000FF6635400584028C8388848B4FF68F7533
:102950002C404FF6FC752C400D882C434FF6FF554C
:102960002A400D894FF6FF7606EA05252A434D8851
:1029700006EA05252A431F4DA84202D0234DA8424E
:102980001DD14FF2FF752A404D894FF6FF7606EABA
:1029900005252A434FF6FF352A408D8806EA05258E
:1029A0002A434EF6FF752B404DF6FF752B408D895F
:1029B00006EA05152B43CD8906EA05152B438380CE
:1029C0008483CD888587028470BD70B50022002382
:1029D0000024058C4EF6FF7635400584038C8488F0
:1029E000828B48F6FF752A404FF6FF452A400D8836
:1029F00020E00000002C01400004004000080040DE
:102A0000000C004000100040001400400034014061
:102A1000004C0140005001400054014000180040AB
:102A2000001C0040002000400040014000440140E4
:102A3000004801404FF6FF7606EA05252A434DF689
:102A4000FF752B400D8906EA05352B434D8806EAB4
:102A500005352B43FA4DA84202D0FA4DA84208D1C1
:102A60004BF6FF752C408D894FF6FF7606EA8515EB
:102A70002C4384808283CD88A0F84050038470BDAD
:102A8000828B4FF2FF331A408283828B4FF6FF73A3
:102A900003EA01231A4382837047F0B50C461546BA
:102AA000002200210026078C4EF6FF7C07EA0C0767
:102AB0000784828B018C4FF6FF7707EA043640F6D5
:102AC000FF473A404FF6FF7707EA05273A434FF6AC
:102AD000FF7707EA03373A43D94FB8420ED0D94FB0
:102AE000B8420BD0B0F1804F08D0D74FB84205D0D4
:102AF000D64FB84202D0D64FB84206D14DF6FF7736
:102B0000394046F48057394305E047F6FF573940CE
:102B100044F48057394382830184F0BD828B4FF6A1
:102B2000F3731A408283828B0A4382837047F0B525
:102B30000C461546002200210026078C4FF6FF6C3C
:102B400007EA0C070784828B018C4FF6FF7707EAB0
:102B500004264FF60C773A404FF6FF7707EA031743
:102B60002F433A43B64FB8420ED0B64FB8420BD0BF
:102B7000B0F1804F08D0B44FB84205D0B34FB8423F
:102B800002D0B34FB84206D14FF6FF57394046F452
:102B90008077394305E04FF2FF57394044F480779E
:102BA000394382830184F0BD028B4FF2FF331A4018
:102BB0000283028B4FF6FF7303EA01231A43028359
:102BC0007047F0B50C461546002200210026078C00
:102BD0004FF6EF7C07EA0C070784028B018C4FF657
:102BE000FF7707EA041640F6FF473A404FF6FF77B3
:102BF00007EA03373A434FF6FF7707EA05273A43D8
:102C00008F4FB8420ED08F4FB8420BD0B0F1804FEB
:102C100008D08D4FB84205D08C4FB84202D08C4FAF
:102C2000B84206D14FF6DF77394046F010073943F6
:102C300005E04FF65F77394044F0100739430283CF
:102C40000184F0BD028B4FF6F3731A400283028BAE
:102C50000A4302837047F0B50C4615460022002156
:102C6000068C4FF6FE773E400684028B018C4FF6B1
:102C70000C7632407E1C06EA03162E433243704E19
:102C8000B0420ED06F4EB0420BD0B0F1804F08D0A2
:102C90006D4EB04205D06D4EB04202D06C4EB04287
:102CA00006D14FF6FD76314044F00106314305E090
:102CB0004FF6F576314044F001063143028301843A
:102CC000F0BD70B505460C465D4885420ED05D48A6
:102CD00085420BD0B5F1804F08D05B48854205D0C6
:102CE0005A48854202D05A48854200D100E000BFD0
:102CF000208850B92389A28861882846FFF7ABFF56
:102D0000E1882846FFF79EFF25E0208804280AD1A5
:102D10002389A28861882846FFF753FFE188284667
:102D2000FFF742FF17E0208808280AD12389A288EC
:102D300061882846FFF7FBFEE1882846FFF7EEFE94
:102D400009E02389A28861882846FFF7A6FEE1886A
:102D50002846FFF795FE70BD2DE9F04105460C466B
:102D600000260127608808B9022600E00026A08816
:102D7000012801D1022700E001272088A0B923897A
:102D8000A28861882846FFF766FFE1882846FFF79A
:102D900059FF23893A4631462846FFF712FFE1885A
:102DA0002846FFF701FF13E02389A288618828469F
:102DB000FFF707FFE1882846FFF7F6FE23893A462A
:102DC00031462846FFF747FFE1882846FFF73AFFDC
:102DD000BDE8F0810A884B881A438B881A43CB8858
:102DE0001A430B891A434B891A438B891A43A0F85B
:102DF000442070474FF6FF71818000210180C1801F
:102E00004180017270470021018041808180C18032
:102E1000018141818181C181704700210180418010
:102E2000012181800021C180018170470021018042
:102E300041808180C1800181418181817047000092
:102E4000002C014000340140000400400008004014
:102E5000000C004021B1028842F00102028004E02F
:102E600002884FF6FE731A400280704731B1B0F805
:102E7000442042F40042A0F8442005E0B0F8442089
:102E8000C2F30E02A0F8442070471AB183890B43A5
:102E9000838102E083898B438381704781827047FD
:102EA00041EA0203A0F8483070471AB183890B4306
:102EB000838102E083898B438381704701894FF6C8
:102EC000F8721140018170470A46002101894FF6CE
:102ED0008F73194011430181704730B504460D4688
:102EE00029462046FFF7F0FF208940F007002081A7
:102EF00030BD2DE9F04104460D4616461F46602DB3
:102F000006D13B46012231462046FFF75AFE05E036
:102F10003B46012231462046FFF79DFE29462046CA
:102F2000FFF7D2FF208940F007002081BDE8F08143
:102F300030B50C4600210189C9B24FF6FF7505EA8C
:102F40000325154325432943018130BD2DE9F04177
:102F500005460E4617469846002443463A463146F3
:102F60002846FFF7E5FF2C894FF6F870044044F03F
:102F700007044FF68F70044044F070042C81BDE8C4
:102F8000F081F0B504460D4616461F463B463246D4
:102F900029462046FFF7CCFF208940F4804020815D
:102FA000F0BD0185828270470A46002101884FF6F4
:102FB0008F731940114301807047F0B50C461546D8
:102FC0001E460021002200230189028B038C4FF64C
:102FD000F877394021434FF6FC473A4040F2011759
:102FE0003A434FF6DD773B404FF6FF7707EA061787
:102FF0002F433B43018102830384F0BD0A46002135
:10300000018B4FF68F7319401143018370470A46B5
:103010000021018B48F6FF7319404FF6FF7303EA56
:1030200002231943018370470A460021818B4FF622
:103030008F7319401143818370470A460021818BA9
:1030400048F6FF7319404FF6FF7303EA0223194352
:103050008183704721B1028842F08002028004E03F
:1030600002884FF67F731A400280704721B1828830
:1030700042F00402828004E082884FF6FB731A401B
:103080008280704721B1828842F00802828004E089
:1030900082884FF6F7731A408280704721B1828888
:1030A00042F00102828004E082884FF6FE731A40EB
:1030B000828070470A460021018B4FF6F773194052
:1030C0001143018370470A460021018B4FF2FF73C1
:1030D00019404FF6FF7303EA022319430183704737
:1030E0000A460021818B4FF6F77319401143818303
:1030F00070470A460021818B4FF2FF7319404FF64B
:10310000FF7303EA02231943818370470A460021B3
:10311000018B4FF6FB7319401143018370470A4638
:103120000021018B4FF6FF3319404FF6FF7303EA7E
:1031300002231943018370470A460021818B4FF611
:10314000FB7319401143818370470A460021818B2C
:103150004FF6FF3319404FF6FF7303EA022319437A
:10316000818370470A460021018B4FF67F73194017
:103170001143018370470A460021018BC1F30E0100
:103180004FF6FF7303EA02231943018370470A468F
:103190000021818B4FF67F73194011438183704763
:1031A0000A460021818BC1F30E014FF6FF7303EA3B
:1031B00002231943818370470A460021018C4FF690
:1031C000FD7319401143018470470A460021018CA8
:1031D0004FF6F77319401143018470470A460021E6
:1031E000018C4FF6DF7319404FF6FF7303EA0213A9
:1031F0001943018470470A460021018C4FF67F7302
:1032000019404FF6FF7303EA021319430184704714
:103210000A460021018C4FF6FF5319404FF6FF7309
:1032200003EA02231943018470470A460021018CF6
:103230004FF2FF7319404FF6FF7303EA022319435D
:10324000018470470A460021018C4DF6FF73194036
:103250004FF6FF7303EA023319430184704730B518
:10326000002301248C40A3B2048C9C430484048C6E
:1032700002FA01F5ADB22C43048430BD30B5002311
:1032800004248C40A3B2048C9C430484048C02FA72
:1032900001F5ADB22C43048430BD70B50346002067
:1032A00000241846183001258D40ACB21D8CA54372
:1032B0001D8409B1082909D100EB6100056825F0DA
:1032C000700505600568154305600EE00D1FC5F328
:1032D0004E052844056825F4E045056005684FF66D
:1032E000FF7606EA02263543056070BD21B10288EB
:1032F00042F00202028004E002884FF6FD731A4099
:103300000280704721B1028842F00402028004E08A
:1033100002884FF6FB731A400280704721B1828801
:1033200042F08002828004E082884FF67F731A4068
:103330008280704702884FF6F7731A400280028835
:103340000A430280704782884FF68F731A4082804A
:1033500082880A438280704702894FF6F8731A40C8
:10336000028102890A430281704702894FF67F7306
:103370001A40028102890A430281704781847047A2
:1033800081857047818670470187704781877047C4
:10339000A0F84010704702884FF6FF431A400280A1
:1033A00002880A43028070470146888E70470146B2
:1033B000088F70470146888F70470146B1F840007A
:1033C00070470146888C70470146088D7047024659
:1033D0000020138A0B400BB1012000E00020704751
:1033E000CA430282704730B5024600200023002401
:1033F000158A05EA0103958905EA010413B10CB1A8
:10340000012000E0002030BDCA4302827047000066
:1034100010B50446FB48844209D101218803FFF717
:103420009FF800214FF48040FFF79AF832E0F64809
:10343000844209D101214804FFF79FF800214FF48D
:103440000030FFF79AF825E0F048844209D10121C5
:103450008804FFF792F800214FF48020FFF78DF8E1
:1034600018E0EB48844209D10121C804FFF785F830
:1034700000214FF40020FFF780F80BE0E54884427C
:1034800008D101210805FFF778F800214FF48010DA
:10349000FFF773F810BD2DE9F04786B005460E46DC
:1034A0000024A24600BFA1460027B08900B100BF9A
:1034B0002F462C8A4CF6FF700440F08804432C827F
:1034C000AC894EF6F3100440B08831890843718905
:1034D00008430443AC81AC8A4FF6FF400440B089F6
:1034E0000443AC8201A8FEF7B4FFC648874202D16C
:1034F000DDF810A001E0DDF80CA0A88900F4004080
:1035000040B10AEBCA0000EB0A1031684900B0FB79
:10351000F1F807E00AEBCA0000EB0A1031688900F5
:10352000B0FBF1F86420B8FBF0F00401200964213D
:1035300001FB1089A88900F4004040B1322000EB63
:10354000C900B0FBF1F000F00700044308E03220AE
:1035500000EB09106421B0FBF1F000F00F00044310
:103560002C8106B0BDE8F0874FF4165101600021B0
:103570008180C18001810C214181002181817047BE
:1035800010B502460020108A4FF2FF0318400B8846
:103590004C8823438C882343CC88234318431082D0
:1035A00010BD0021018041808180C180704721B120
:1035B000828942F40052828104E082894DF6FF73D1
:1035C0001A4082817047F0B503460024002600258A
:1035D000002040F66A17B94200D100BF1846C1F377
:1035E000421401F01F06012707FA06F5012C01D14C
:1035F0000C3004E0022C01D1103000E014301AB17C
:1036000007682F43076002E00768AF430760F0BD1B
:103610001AB1838A0B43838202E0838A8B438382BD
:103620007047028A4FF6F0731A400282028A0A43F8
:103630000282704782894FF2FF731A408281828929
:103640000A438281704721B1828942F0020282815D
:1036500004E082894FF6FD731A4082817047028A26
:103660004FF6DF731A400282028A0A4302827047D1
:1036700021B1028A42F48042028204E0028A4BF6BF
:10368000FF731A4002827047C1F3080282807047BC
:1036900001468888C0F308007047818941F0010124
:1036A00081817047028BD2B20283028B42EA0122EF
:1036B00002837047028B02F47F420283028B0A432B
:1036C0000283704721B1828A42F02002828204E0A4
:1036D000828A4FF6DF731A408282704721B1828A54
:1036E00042F01002828204E0828A4FF6EF731A40A1
:1036F0008282704721B1828A42F00802828204E00D
:10370000828A4FF6F7731A408282704721B182890C
:1037100042F40042828103E08289C2F30E02828178
:10372000704721B1828A42F40062828204E0828A78
:103730004FF2FF731A4082827047828A4FF6FB7302
:103740001A408282828A0A438282704721B1828A29
:1037500042F00202828204E0828A4FF6FD731A4030
:103760008282704702460020B1F5007F00D100BF81
:1037700013880B400BB1012000E00020704701F4DA
:103780000072B2F5007F00D100BFCA4302807047CB
:1037900070B50246002400230025002040F66A167A
:1037A000B14200D100BFC1F3421501F01F03012651
:1037B00006FA03F3012D02D19689334006E0022D6B
:1037C00002D1168A334001E0968A33400C1201265A
:1037D00006FA04F41688344013B10CB1012000E05D
:1037E000002070BD10B50022002340F66A14A142EB
:1037F00000D100BF0A1201249440A3B2DC4304802C
:1038000010BD000000380140004400400048004066
:10381000004C00400050004053EA020C00F0698068
:103820002DE9F04B4FF00006002B1FBFB3FA83F5D4
:1038300003FA05F424FA05F65E4012BF1643B2FA05
:1038400082F502FA05F4C5F120051EBF22FA05FC37
:1038500044EA0C04203556EA044C4FEA144418BFDD
:10386000641C4FF000084FF00009904271EB030C0C
:1038700039D3002919BFB1FA81F701FA07F6B0FA76
:1038800080F700FA07F6C7F120071EBF20FA07FCF1
:1038900046EA0C062037B6FBF4FCA7EB0507103F01
:1038A00007F01F0BCBF120060CFA0BFB2CFA06F6E7
:1038B00044BFB3460026202FA4BF5E464FF0000B46
:1038C0005BEA060C08BF4FF0010B19EB0B09ABFBD1
:1038D000027C48EB0608C01B06FB02CC0BFB03CCAA
:1038E00071EB0C01C1E70B46024641464846BDE874
:1038F000F08B13B54FF000004FF00001AFF30080E4
:10390000BDE81C40704700001CB50C46064B7B44CC
:1039100069460090204600F0C4F80446002069463D
:1039200000F0D2F820461CBDB70100007047704778
:10393000704770B5044685690068C10601D5302618
:1039400000E02026C00707D070BDD4E90121304631
:103950009047206A401C20626D1EF6D570BD70B580
:10396000044685690078C00707D170BDD4E90121FC
:1039700020209047206A401C20626D1EF6D570BD45
:1039800009684A0501D540B27047C905FCD500B2A7
:10399000704709684A0501D5C0B27047C905FCD512
:1039A00080B2704770B50C460546012A05D02878CC
:1039B000800600D5EA69002302E0012305E05B1CD4
:1039C000934202D2E05C0028F9D1A869E618C01A37
:1039D000A861286A184428622846FFF7AAFF04E075
:1039E000D5E9012114F8010B9047B442F8D32846D9
:1039F000FFF7B5FF70BD00002DE9F0410646002439
:103A000010687529314616A510D0FFF7B9FF0028B8
:103A100002DA404213A507E031688A0701D512A5F2
:103A200002E0490704D511A5012401E0FFF7B1FF29
:103A300000210A2206F1240709E0B0FBF2FCB0FBEA
:103A4000F2F302FB1C00303078541846491C002861
:103A5000F3D123462A463046BDE8F04100F061BA72
:103A6000000000002D0000002B00000020000000DE
:103A700011680268006A530501D508700AE0D30591
:103A800001D5088006E0130603D5C217C1E900027C
:103A900000E008600120704701694A1C0261087853
:103AA000704700B58FB0CDE901310021059105497E
:103AB0007944CDE903101146684600F029F90FB0AA
:103AC00000BD0000E5FFFFFF0A6802F8010B0A6075
:103AD000704700002DE9FF5F15468A460446DFF86F
:103AE000AC80F8440027D8E900103E46CDE900102C
:103AF00010E03AF816106A4602A800F023FE411CB6
:103B000007D02178890603D5E269391891420DD88A
:103B10000744761C2078800602D5E069B84205DDAE
:103B2000AE42E6DB3AF816000028E2D1A069C01BDD
:103B3000A0612046FFF7FDFED8E90010CDE9001096
:103B4000002017E03AF818106A4602A800F0FAFDC3
:103B5000B0F1FF3F81460BD000250DF1080B05E0C9
:103B6000D4E901211BF8050090476D1C4D45F7D3A2
:103B700008F10100B0428046E4DB206A384420624C
:103B80002046FFF7ECFEBDE8FF9F0000B2260000D4
:103B90002DE9F0418046D21D22F007020025D2E92E
:103BA0000002F52915A614D0011E72F1000106DAF3
:103BB0000023D0EB030063EB020211A608E0D8F863
:103BC00000108B0701D50FA602E0490701D50EA60C
:103BD00001251146002408F1240704E000F05CF9F7
:103BE00030323A55641C50EA0102F7D12B46324676
:103BF00021464046BDE8F04100F093B900000000C6
:103C00002D0000002B0000002000000030B4002137
:103C100000F1240408E002F00705D208303542EA3A
:103C20004372DB086554491C52EA0305F3D104686A
:103C3000002310A2250708D504F020040C4304D06B
:103C4000C46901230CA2641EC46130BC00F069B9D0
:103C500010B5044621461068FFF79BFE0246204639
:103C6000BDE810400023D1E7D21D22F00701D1E9C1
:103C70000023CBE70000000030000000F0B40D4648
:103C80000188090502D5214C7C4402E01F4C7C448C
:103C90000E34002100F1240608E002F00F0712099B
:103CA000E75D42EA03721B097754491C52EA030795
:103CB000F3D102780023120704D5702D06D009B184
:103CC000022311342246F0BC00F02BB9012310343A
:103CD000F8E770B504460D4621461068FFF759FE17
:103CE000024629462046BDE870400023C6E7D21DA3
:103CF00022F00703D3E90023C0E70368126843F00A
:103D0000200303600823C3610023B7E714250000E4
:103D10002DE9F05F894604464FF0000ADFF874B1E0
:103D2000FB44C0F820A02046E1688847002874D0F2
:103D3000252806D0D4E901219047206A401C206242
:103D4000F1E700265F462046E168884720280546BF
:103D500007DB312D05D2781910F8200C08B1064385
:103D6000F1E7B00701D526F00406C4F81CA000272F
:103D7000C4F818A02A2D09D0284601F007FA38B354
:103D800004EB8708303DC8F8185019E059F8041BB7
:103D9000204604EB87029161E1688847012F0546C0
:103DA00018D1E069002820DA26F020061DE0D8F8B6
:103DB000180000EB800005EB40003038C8F8180010
:103DC0002046E1688847054601F0E0F90028EED179
:103DD000012F0AD02E2D08D12046E16888477F1C8C
:103DE0000546022F46F02006C4DBA069002803DA4E
:103DF000404246F00106A061F00701D026F010060F
:103E00006C2D0BD0682D09D04C2D39D06A2D35D0B2
:103E1000742D35D07A2D33D016E038E0E1682F4686
:103E200020468847B842054609D16C2F26D04FF46A
:103E30008060E168064320468847054604E06C2F11
:103E40001AD04FF4807006430DB3A5F14100192834
:103E500002D8203546F400664A46294620462660A8
:103E60004E46FCF79FF980B101280BD0F61D26F0D5
:103E7000070000F1080956E74020E4E78020D8E772
:103E80000020D6E706F104094DE7284652E7206AEC
:103E9000BDE8F09FA424000030B5B0F10A024FEA5B
:103EA000900E71F100034EEA817EB0EB0E0061EBE3
:103EB00091014FEA101E4EEA017E10EB0E0041EB1D
:103EC00011114FEA102E4EEA016E10EB0E0041EB7D
:103ED00011214FEA104E4EEA014E10EB0E0041EB5D
:103EE0001141401841F100014FEAD00040EA417011
:103EF0004FEAD10110EB80054FEA810444EA907447
:103F000044EB01046D1944EB0404521BA3414FF030
:103F1000000348BF0A3200D530BD401C41F100010A
:103F200030BD2DE9F0470D4699469246044600F112
:103F300024080168880604D5E06921F01001216099
:103F400000E00120A84201DD471B00E00027A16935
:103F50007A1902EB0900081AA0612078C00602D481
:103F60002046FFF7E6FC002608E0D4E901211AF814
:103F700006009047206A401C761C20624E45F4DB08
:103F80002078C0060AD52046FFF7D3FC06E0D4E926
:103F9000012130209047206A401C2062381EA7F182
:103FA0000107F4DC07E0D4E9012118F80500904787
:103FB000206A401C2062281EA5F10105F3DC204682
:103FC000FFF7CDFC2078000602D50220BDE8F0877F
:103FD0000120FBE770472DE9FF4F0C461E464FF0CE
:103FE000FF378BB0D2E90001DDF860800A908A4685
:103FF000C1F30A5505B93D46002108464FF00000BF
:10400000BAF1000F00F4400005DA00EB80004FF435
:10401000400101EA50004FEA9059B9F1010F00DD6B
:10402000B9460A9850EA4A000ED044F61050A5F25C
:10403000FF3545432F14B8F1000F1ED07542291EDD
:104040001EDDC9F100021CE0B8F1010F4FF00000C5
:1040500001D0302103E0F24305E02154401CB0427E
:10406000FBDB30460022002121540B99C1F8088067
:10407000C1E900200FB0BDE8F08FBD1B6D1CDEE76D
:104080004A4600DA694206A800F0EEFB06AB93E868
:10409000070003AB83E8070050460A9900F0A7FC2D
:1040A0008DE80700A0F500501F3800900398002D00
:1040B00009DD42F21F014A46084403A903906846FD
:1040C00000F006FF08E0A0F500504A461F3803A99B
:1040D0000390684600F010FF8DE807000004000C14
:1040E00003D04FF0FF30410800E01046B8F1000F58
:1040F00003D00022009215461EE0751E05D4FFF77E
:10410000CBFE303262556D1EF9D5B346012208430D
:1041100002D000227F1C04E02078302801D1002248
:104120007F1E002A099786D01DE0112D07DAFFF7C0
:10413000B3FE303262556D1C50EA0102F5D10843DE
:1041400002D00098C8B10EE00021681E05E0235C93
:10415000625C63542254401E491C8142F7DBAB462B
:10416000A81B401E0990002004F80B000B98099A28
:10417000C0F80880C0E9002B7CE711264FF000084A
:1041800059E72DE9F04F88460446D21D22F0070179
:1041900091B0D1E90001CDE90A0100F0E3FF024648
:1041A0000B98C00F01D02D2007E02068810701D5B2
:1041B0002B2002E0202101EAC000032A099001D04F
:1041C000072A05DB03464146204600F00DFB0BE1C4
:1041D0002078800601D5E06900E00620B8F1650F7F
:1041E000814606D0B8F1660F18D0B8F1670F70D1CC
:1041F00031E00020B9F1110F009001DB112301E043
:1042000009F101030AAA01A90CA8FFF7E4FEDDE900
:104210000C70002609F10105834647E001204B465A
:1042200000904FF000470AAA01A90CA8FFF7D3FE9F
:10423000DDE90DB00C995D46002610B909F10100C9
:104240000D18B9EB050003D4C0F1FF3609F10105E3
:10425000A5EB09002BE0B9F1010F01DA4FF00109DC
:104260000020B9F1110F0090484601DD112300E054
:1042700003460AAA01A90CA8FFF7ADFEDDE90C7000
:104280004D4600268346207800070AD4AB4500DA65
:104290005D4601A8012D04DD411911F8011C3029EA
:1042A00007D04F4502DA17F1040F04DA01208246E5
:1042B0000FE06D1EEEE7002F02DCED1B3E4403E035
:1042C000781CA84200DD7D1CB81B00F1010A4FF0EC
:1042D00000472078000703D4AA4501DB4FF0FF3ADE
:1042E0000021B7F1004F0DF143088DF8431024D0A1
:1042F00002202B23002F01DA7F422D230A21021EE8
:10430000A0F1010000DC5FB197FBF1FC97FBF1F23B
:1043100001FB1C7C17460CF1300C08F801CDEEE7D0
:10432000A8F1010003702188090501D5452100E0AD
:104330006521A0F1010800F8011C09980FA9A1EB63
:104340000807FF1D00B10120411901EBEA70A169C6
:104350003844081A401EA0612078C00602D42046C6
:10436000FFF7E7FA099828B1D4E901219047206ABC
:10437000401C20622078C00622D52046FFF7D9FADB
:104380001EE0002E04DBB34502DD01A8805D00E0E5
:104390003020D4E901219047206A401C2062761C1D
:1043A000AAF101005FEA000A0AD100F019FAC06818
:1043B0000168405CD4E901219047206A401C2062DA
:1043C000281EA5F10105DCDC07E0D4E9012118F87D
:1043D000010B9047206A401C2062381EA7F101079C
:1043E000F3DC2046FFF7BBFA032011B043E60000E0
:1043F0002DE9F04F04460D46D21D22F0070089B08A
:10440000D0E9009248461746394600F0ABFE024616
:10441000F80F01D02D2307E02068810701D52B2359
:1044200002E0202101EAC0038DF820300BB1012009
:1044300000E00020032A824601D0072A04DB294637
:10444000204600F0D1F93DE12078800601D40D2509
:1044500000E0E569C7F30A560D2D49DA00214FEA5D
:10446000175B08464FF00000002F00F4400007DA09
:1044700000EB80004FF4400100EBD07001EA6000D7
:104480008115012901DD4FF0FF3100224FEA850C33
:10449000BCF1180F06D31346ACF118004FF0805250
:1044A000C24003E04FF4801323FA0CF30CF10C0C20
:1044B000BCF1200F04D3ACF1200C09FA0CF001E0A0
:1044C00007FA0CF000294FF0004801DD18B90FE0A1
:1044D0000ED140450CD319EB02095F4121B940458B
:1044E00002D19F4329EA0209BBEB175F00D0761C7B
:1044F0002088000502D57B48784402E0794878445A
:10450000193808AA302302F80A30037C0AF10101A5
:10451000002E0AF1020A53546A4602DC4FF03001C1
:1045200001E04FF031014FF001088DF8001002D08A
:10453000A6F2FF3603E059EA470100D06A4E002D8B
:1045400002DC2178090704D54FF002082E218DF8EE
:104550000110C44600210BE0C7F303433F01C35CD5
:10456000491C6D1E02F80830052908F1010801DA1E
:10457000002DF1DC00210CE000EB1973491C1B78C5
:104580006D1E082902F808304FEA091908F10108E0
:1045900001DA002DF0DC2178890602D514E0A8F1BB
:1045A0000108E04505DD02EB080111F8011C302986
:1045B000F5D0B8F1000F07DD02EB080111F8011C7E
:1045C0002E2901D1A8F10108002D05DD3E2102F8B8
:1045D00008106D1E08F10108407C002E02F808004A
:1045E00008F1010804DA2D20764202F8080002E002
:1045F0002B2002F808000A214FF47A70864208F155
:1046000001080BDB96FBF0F3303302F8083096FB21
:10461000F0F308F1010800FB136601E0642E0CDBE7
:10462000642096FBF0F3303302F8083096FBF0F389
:1046300008F1010800FB136601E00A2E06DB96FB79
:10464000F1F0303002F8080008F1010896FBF1F0B3
:1046500001FB1060303002F80800A16908F1010880
:1046600008EB050202EB0A00081AA0612078C006D8
:1046700002D42046FFF75DF9216A08AE01EB0A007B
:10468000206204E0D4E9012116F8010B9047BAF149
:10469000010AF7D22078C00602D52046FFF749F973
:1046A0006E4609E016F8010B3E280FD0D4E901212F
:1046B0009047206A401C2062B8F10108F2D22046DF
:1046C000FFF74DF909B00320BDE8F08F206A2844B8
:1046D000206203E0D4E90121302090476D1EEBD326
:1046E000F8E70000F01C000002FCFFFF10B5436972
:1046F00013B1AFF3008001E0FFF754F9012010BDC2
:10470000127800F124010A7000224A700122EDE7BC
:1047100011684FF0FF32E9E710B5436913B1AFF309
:10472000008001E0FFF7D6F9012010BD128800F1EA
:10473000240182840022C2840122EDE711684FF037
:10474000FF32E9E770B516460C46054600F040F822
:10475000036893F80101012806D0FF2C0FD8185DDB
:1047600068B101202C7070BDD3F807013246214694
:1047700003F2071303442846BDE8704018474FF082
:10478000FF3070BD754600F0E7F8AE46050069469B
:10479000534620F00700854618B020B5FDF72AFBE8
:1047A000BDE820404FF000064FF000074FF0000832
:1047B0004FF0000B21F00701AC46ACE8C009ACE8B3
:1047C000C009ACE8C009ACE8C0098D4670470000DC
:1047D00010B500F005F8001D10BD00BFED09000088
:1047E00000487047500200202DE9F0411F46044662
:1047F00003260168072A01F4006004DB08B116A54E
:1048000005E016A503E008B115A500E015A521F007
:1048100010002060A069C01EA0610FB1401EA06101
:104820002046FFF786F84FB1D4E90121384690477A
:10483000206A401C2062C01C206206E0206AFAE761
:10484000D4E9012115F8010B9047761EF8D22046D5
:10485000FFF785F8BDE8F0814E414E006E616E00B5
:10486000494E4600696E66002DE9F04781461646BE
:104870008AB0334878440DC88DE80D00304878443C
:10488000801C03AC0DC884E80D0041F69B30084441
:10489000372190FBF1F290FBF1F5A5F1800501FBCA
:1048A00012041B3C02D56442012000E00020DFF826
:1048B00090A080460027FA44AAF1BE0A0DE0E00766
:1048C00009D03246684607EB47010AEB810100F048
:1048D00013FB8DE8070064107F1C002CEFD1184FEC
:1048E0007F44AC3F18E0E80714D007EB04100DF14B
:1048F000180A90E80E008AE80E00C068F04201D164
:1049000098190890324606A903A800F0F5FA03ABFF
:1049100083E807006D10641C002DE4D1324669461F
:10492000B8F1000F03A802D000F0D2FA01E000F0C5
:10493000E3FAC9E90001C9F808200AB0BDE8F08728
:10494000041A000010B50446AFF300802046BDE80D
:104950001040FBF78ABC000000487047300200207E
:104960004FF0013C50F8042B51F8043B9A4221D1FE
:10497000A2EB0C03934313EACC1317D150F8042B8A
:1049800051F8043B9A4215D1A2EB0C03934313EA6E
:10499000CC130BD150F8042B51F8043B9A4209D1A7
:1049A000A2EB0C03934313EACC13DBD04FF00000CF
:1049B000704700BFD01A01BAB1FA81F101F01801B5
:1049C00022FA01F0CB40C1F12001DBB2C0B2C01A23
:1049D0002CFA01F3D11A914311EAC311E6D17047C1
:1049E00001491820ABBEFEE72600020070475FEACF
:1049F000400C08BF91F0000F4FEA8C234FEAC12210
:104A000043EA51514FEA1C5018BF00F5F0404FEAFD
:104A1000300018BF41F000415FEA6C5C00F0298073
:104A2000BCF1FF3F08BF40F080407047130C06BF49
:104A300012044FF0100C4FF0000C130E04BF1202C2
:104A40000CF1080C130F04BF12010CF1040C930FAE
:104A500004BF92000CF1020CD30F04BF52000CF102
:104A6000010C11464FF00002A0F11F00A0EB0C005A
:104A7000704711F0004F08BF704731F000413FF41C
:104A8000D5AF0B0C06BF09044FF0100C4FF0000C13
:104A90000B0E04BF09020CF1080C0B0F04BF090137
:104AA0000CF1040C8B0F04BF89000CF1020CCB0F2E
:104AB00004BF49000CF1010CCCF12003A0EB0C0069
:104AC00022FA03F302FA0CF241EA030100F10100B9
:104AD000704720F07F4C80EA030023F07F47ACEB67
:104AE000070303F57C5300F0004003F1FF032DE9B9
:104AF00080494FEA154B09B44FEA144325EA0B4E9F
:104B000024EA03480FF2042606EB132749083E78EF
:104B10005FEA320203FB0667C7F5000707FB06F6EC
:104B20004FEA54374FEAD64606F1020607FB066CF9
:104B3000CCF1005C4FEA1C472CEA074C07FB06F45B
:104B40000CFB06F504EB15464FEA961634BF002021
:104B50004FF000404FEAD13706FB07FC4FEA1C4CF0
:104B60000CFB0BF7D21B03FB0CF761EB07010CFBF3
:104B70000EF7B0EB074072EB17420CFB08F734BF9F
:104B8000A2EB0742B2EB074261EB17414FEA0C443C
:104B90004FEA910706FB07FC4FEA1C4C0CFB0BF796
:104BA000B0EBC74072EB573203FB0CF734BFA2EBFC
:104BB000C742B2EBC74261EB57310CFB0EF7B0EBCB
:104BC000C70072EB57720CFB08F734BFA2EBC702A9
:104BD000B2EBC70261EB5771039F4FEA816141EA73
:104BE000921104EBCC044FEAD1374FEA826206FB04
:104BF00007FC42EA90124FEA80604FEA1C4C0CFB23
:104C00000BF7D21B03FB0CF761EB07010CFB0EF754
:104C1000B0EB074072EB17420CFB08F734BFA2EB76
:104C20000742B2EB074261EB17414FEA8C554FEA5E
:104C3000910704EB9C2406FB07FC4FEA1C4C0CFB81
:104C40000BF7B0EBC74072EB573203FB0CF734BFE6
:104C5000A2EBC742B2EBC74261EB57310CFB0EF738
:104C6000B0EBC70072EB57720CFB08F734BFA2EB36
:104C7000C702B2EBC70261EB577115EB4C254FEA47
:104C8000816141EA92114FEA82624FEAD13742EAEA
:104C9000901206FB07FC44F100044FEA80604FEAE3
:104CA0001C4C0CFB0BF7D21B03FB0CF761EB070151
:104CB0000CFB0EF7B0EB074072EB17420CFB08F74A
:104CC00034BFA2EB0742B2EB074261EB174115EB91
:104CD0001C154FEA813141EA92414FEA823242EAA1
:104CE00090424FEA80304FEA0C7644F1000448EAE3
:104CF00003434EEA0B484FF0000EB2EB080C71EB89
:104D0000030724BF624639464EEB0E0E4FF0000BF0
:104D10000018524149414BEB0B0BB2EB080C71EB05
:104D200003077BF1000B24BF624639464EEB0E0EA3
:104D30004FF0000B0018524149414BEB0B0BB2EB0B
:104D4000080C71EB03077BF1000B24BF6246394668
:104D50004EEB0E0E51EA020718BF46F0010616EBA5
:104D60000E7655F1000254F1000103D5BDE889012A
:104D7000BDE80088BDE88901BDE80048B619524188
:104D800041EB0101A3F10103704780807F7E7D7CB0
:104D90007B7A7978777676757473727171706F6ECD
:104DA0006E6D6C6C6B6A6A69686867666665646478
:104DB000636362616160605F5F5E5E5D5D5C5C5B02
:104DC0005B5A5A5959585857575656555555545471
:104DD000535352525251515050504F4F4F4E4E4DCF
:104DE0004D4D4C4C4C4B4B4B4A4A4A49494948481B
:104DF000484747474746464645454544444444435B
:104E000043434342424242414141002B26D4770072
:104E100021D01CB54FEA370703B44FF010004FF014
:104E200010014FF000000FBCBDE810400BF1010B6A
:104E3000BBF1010F08BF5FEA170722BF12F10102A1
:104E400011F101014FF0004143F1000300F0004077
:104E500043EA00007047F9D35708DAE746EA064606
:104E600013F1400F4FEA16461FDD13F1200FDFBF8D
:104E700016430A46002120335B42C8D0C3F1200705
:104E800046EA064602FA07F74FEA164646EA0706DA
:104E9000C3F1200722FA03F201FA07F721FA03F11E
:104EA0004FF0000342EA0702B1E746EA020646EA8B
:104EB00006464FEA164646EA0106BCBF46EA0646E3
:104EC000360C4FF000034FF000024FF000019EE758
:104ED0002DE9C048934630B491E8380007C831EA5C
:104EE000400C48BF34EA430C03D5FFF7F2FDFFF74F
:104EF0008CFFF0BCBDE800882DE9C048934630B473
:104F000091E8380007C810F0804F08BF13F0804FB9
:104F100003D100F005F8FFF778FFF0BCBDE800888A
:104F200020F07F4780EA030023F07F4C07EB0C035F
:104F3000A3F57C5300F00040A3F1FE0392F0000FB4
:104F400000F0B38095F0000F00F077802DE9014963
:104F50004FEA11404FEA144621EA004800FB06FCE4
:104F600024EA064708FB06F607FB08F800FB07F7EC
:104F700018EB06484CEB164C4FEA124B18EB07485F
:104F80004FEA15464CEB174022EA0B4E0BFB06FC92
:104F900025EA06470EFB06F607FB0EFE0BFB07F79E
:104FA0001EEB064E4CEB164C4FF000061EEB074E68
:104FB0004CEB174B18EB0B0840F1000018EB0E0BF5
:104FC00058EB000840F100008F1A4FF000013CBF81
:104FD000C943661B14BFB5EB040C00213CBFC94399
:104FE000F61B4FEA17444EEA8E0E27EA04454FEAB5
:104FF0001C4704FB07622CEA074C05FB07F70CFB78
:1050000005F604FB0CFC16EB074642EB174216EBC9
:105010000C4642EB1C421BEB060658EB02024141D8
:1050200046EA9E0601D5BDE80189B619524141EB19
:105030000101A3F10103BDE801894FEA14454FEADC
:10504000114724EA054621EA074C05FB07F406FB55
:1050500007F70CFB06F105FB0CFC11EB074144EBD9
:1050600017444FEA124711EB0C4144EB1C4422EA6F
:10507000074C05FB07F206FB07F70CFB06F605FBE2
:105080000CFC16EB074642EB174216EB0C4642EBC4
:105090001C456A1854F1000148BF7047B6195241C7
:1050A00041EB0101A3F10103704795F0000F37D0E8
:1050B0004FEA11424FEA144721EA024624EA074C1C
:1050C00002FB07F106FB07F70CFB06F402FB0CFCE6
:1050D00014EB074441EB17414FEA154714EB0C441E
:1050E00041EB1C4125EA074C02FB07F506FB07F7DD
:1050F0000CFB06F602FB0CFC16EB074645EB1745CE
:1051000016EB0C4645EB1C42121951F1000148BF49
:105110007047B619524141EB0101A3F101037047F9
:105120004FEA14454FEA114724EA054621EA074CA5
:1051300005FB07F106FB07F70CFB06F24FF0000634
:1051400005FB0CFC12EB074241EB174112EB0C4242
:1051500051EB1C4148BF7047921841EB0101A3F18C
:1051600001037047490050EAC12018BF04204A0DCE
:1051700018BF40F0010040F2FF72B2EB515F08BF70
:1051800040F00200012808BF0520704730380A2887
:1051900001D20120704700207047000010B500299F
:1051A0000AD00878002807D005487844FFF7D8FBD4
:1051B000002801D0002010BD0248784410BD000036
:1051C0000A1100000211000010B500290AD0087869
:1051D000002807D005487844FFF7C2FB002801D01B
:1051E000002010BD0248784410BD0000FA100000F5
:1051F000F210000010B591EA030F48BF83F000439E
:1052000000F19083841A71EB030C05D2121943EB61
:105210000C03001B61EB0C01DFF824E14FEA115491
:10522000A4EB135C1EEA430F18BF9EEA445F73D0E1
:1052300023EA0E03DCF1200E21EA045143F480132B
:1052400032D322FA0CFE10EB0E0023FA0CFE41EBD7
:105250000E01CCF1200E03FA0EFE10EB0E0051F100
:105260000001B1F5801FCCF1200E32D201EB0451C8
:1052700012FA0EF2BDE8104058BF7047401C38BF0C
:105280005FEA420218BF7047002814BF20F00100F7
:1052900041F100014FEA410313F5001F38BF704789
:1052A000A1F1C04100F024BB012A43EB0302ACF1A1
:1052B000200CDCF11F0E32BF4FF0000E23FA0CF36E
:1052C00010EB030041EB0451B4EB115FD0D0A1EB24
:1052D000045101F5801149085FEA300001EB0451E7
:1052E0000ED350F1000038BF12FA0EFE08D1BDE80F
:1052F0001040C9E7401C38BF5FEA4202CAD1C3E789
:10530000BDE810404FEA410313F5001F38BF704756
:10531000A1F1C04100F0ECBA9EEA445F08D011EA66
:105320005E0FBDE8104004BF01F00041002070474F
:10533000BDE8104070B500F08DFA00BF64FBBE3EC2
:105340000000E0FF2DE9C04130B4DFF8A0C23CEA24
:10535000111418BF3CEA131400F0EC8081EA030535
:105360001CEA111444EAD57418BF1CEA131500F0A6
:10537000C780A4EB05044FF0004545EAC12145EA8A
:10538000C32341EA505143EA525304F17F749942D6
:1053900004F500344FEAC0204FEAC22208BF904211
:1053A00000F09C804FEA13650FF24016765D4FEADD
:1053B000134506FB05F7C7F1807706FB07F74FEAB1
:1053C000D737A7FB03687642C8F58038A7FB06CE1F
:1053D00038BFA8F1010807FB08E64FF0000EA6FB56
:1053E000028CE6FB03CEDCF1000CCEF1004E38BFA0
:1053F000AEF1010EA6FB0C584FF000074FF0000570
:10540000E6FB0E87A1FB08C6A0FB07CE16EB0E0637
:1054100045F10005E1FB076515F1E04E7EBFA4F5FF
:1054200080345FEA46066D4116F1800745F10005BC
:105430004FEA17274FEA066647EA0567A6F1DE46F8
:10544000B6F1805F4FEA15251FD9384624F0010CCC
:1054500005EBC471BCF1FE6F01EB0C1102D8F0BC7E
:10546000BDE8008124425CBF01F5801E9EEAC47F36
:1054700002D4F0BCBDE80081244238D4F0BCA1F1D4
:10548000C041BDE8004100F033BA4FEAD22242EAFF
:1054900043524FEAD323A7FB02864FEAD02040EACB
:1054A000415007FB03661EEA0E0F4FEAD12105FBB0
:1054B000026658BFA6EB0056B6EB00564FEA520EF6
:1054C0004EEAC37E18EB0E0E56EB530EBDD518EB0D
:1054D00002085E417F1C55F10005B6E74FF48015C8
:1054E0004FF000074FF000064FF00008ADE7F0BCAA
:1054F0004FF0000001F1C04101F00041BDE8008122
:1055000011EA0C1F0CEA131500D00CE013EA0C1F73
:1055100000F025804FF00000F0BC81EA030101F0AB
:105520000041BDE80081F0BCBDE8004181EA030113
:1055300000F0DEB9F0BCBDE8004170B500F08AF9BA
:10554000097EFC3E00F007B881EA03014FF000003D
:1055500001F00041704781EA030100F0C9B9F0BCD5
:10556000BDE800414FF0000021497047FFFDFBF905
:10557000F7F5F4F2F0EEEDEBE9E8E6E4E3E1E0DE86
:10558000DDDBDAD8D7D5D4D3D1D0CFCDCCCBCAC8F8
:10559000C7C6C5C4C2C1C0BFBEBDBCBBBAB9B8B71F
:1055A000B6B5B4B3B2B1B0AFAEADACABAAA9A8A812
:1055B000A7A6A5A4A3A3A2A1A09F9F9E9D9C9C9BE0
:1055C0009A9999989797969595949393929191908B
:1055D0008F8F8E8E8D8C8C8B8B8A8989888887871C
:1055E0008685858484838382828181800000FF0791
:1055F0000000F87F4FEA1153A3F58063D3F11E0337
:10560000A8BFD3F1200C08DB4FF0004242EAC122D0
:1056100052EA505232FA03F0704709420BD4102B71
:10562000C4BF0020704703F5787CBCF1FF3F05D074
:105630004FF0FF3070474FF00000704770B500F03A
:1056400009F900BF4992248000207047F0E7B0FAC2
:1056500080F310FA03F10AD0C3F11D0303F5806350
:105660004FEA41504FEA035202EBD12170474FF00D
:1056700000007047B1FA81F30B3B20D3994010D161
:10568000B0FA80F310FA03F108BF7047C3F11D03AD
:1056900003F580634FEAD1224FEA415002EB0351F8
:1056A0007047C3F1200C20FA0CFC9840C3F1320380
:1056B00003F5806341EA0C0101EB0351704710B51B
:1056C000C3F10004C3F1320CC4F1200E0CF580626A
:1056D00001FA0EFC21FA04F100FA0EF3E040BDE8F5
:1056E000104040EA0C0001EB025138BF7047401CEB
:1056F00041F100015B0008BF20F00100704700008D
:10570000DFF848C170B51CEA111E1EBF1CEA131554
:105710009EEA0C0F95EA0C0F00F06F8081EA0304FB
:1057200023EA4C134EEAD47E21EA4C1141F4801155
:1057300043F48013AE44A1FB024CA0FB0365AEF121
:105740007F7E361955EB0C05A1FB034C4CF1000391
:10575000A0FB021C16EB0C06654153F10003094245
:1057600018BF46F0010613F4007F0BD14FEA033156
:105770004FEA0530340341EA155140EA16506FF004
:1057800003020AE04FEAC3214FEAC520F40241EACE
:10579000555140EA56506FF0020202EB2E4201EBE7
:1057A000025585EACE710AD05FEA440C18BF24F096
:1057B000004450F1000041F1000120EAD47040F2B1
:1057C000FE7C624500D270BDA84214BF4FF08044F9
:1057D0004FF04044002E08BF0024BEF1806FA8BFE8
:1057E000A1F1C041BDE8704080F282804FF000001E
:1057F00001F1C04101F0004170479EEA0C0F0CEA34
:10580000131518BF95EA0C0F06D04FF0000081EA7F
:10581000030E0EF0004170BD00F01CF88900013E3F
:1058200000F007B800F009B84FEA430C5FEA5C5C8F
:1058300008D081EA030100F05BB84FEA410C5FEA4F
:105840005C5CF6D14FF00000014970470000FF0793
:105850000000F87F0EF1020E2EF0030E5EF8046BCE
:10586000364205D4012A43EB030515F5001F12D873
:10587000012841EB010C1CF5001F0CD80ED14FEA9A
:10588000D17C15F5001F0CEB4C0C0CF1020C08BF81
:105890004CEBD37C04E04FF0080C01E04FEAD37CE2
:1058A0000CEB4C0526FA05F606F00706B6F1040CDB
:1058B00006D20EEB860CBDE870404CF0010C604740
:1058C000DFE80CF0090B02024FF000414FF000003E
:1058D000A1F5002170BD19461046012851EB0104C5
:1058E00018BFD4F5001484BF002001F0004170BD42
:1058F0000808A0F500114FEA3101704791EA030F43
:1059000010B581F000413FF57DAC83F0004300F01D
:1059100009B8000010B591EA030F48BF83F00043B7
:105920003FF570AC841A71EB030C07D212198CF09E
:10593000004C43EB0C03001B61EB0C01DFF8A4E10E
:105940004FEA1154A4EB135C1EEA430F18BF9EEA02
:10595000445F00F0B08023EA6E03524221EA045112
:10596000C3EB6E0338BF5B1EDCF1200E25D322FA99
:105970000CFE10EB0E0043FA0CFE41EB0E01CCF1D5
:10598000200E03FA0EFE10EB0E0051F10001CCF1D7
:10599000200E29D412FA0EF201EB0451BDE810409A
:1059A00058BF7047401C1CBFB2F1004F7047002821
:1059B0000CBF491C20F00100704712EB020E43EBB4
:1059C000030218BF4FF0010E4EEA4202ACF1200C68
:1059D000DCF11E0E54D943FA0CFE10EB0E0051F10F
:1059E000FF31CCF11E0ED5D50EF1010E12FA0EFECE
:1059F000404141EB010101EB445C5FEA5C5C10D982
:105A000010EBDE7001EB045138BFBEF1004FBDE872
:105A1000104018BF704700280CBF491C20F001003F
:105A2000704730D24FEAD42C11F5001124F40064F1
:105A30001BD0B1FA81F20B3AA41AA41ED2F12003B2
:105A4000914030FA03F31943904001EBCC71002CE4
:105A500001EB0451BDE81040A8BF704701F1C041FF
:105A60004FF0000001F000417047B0FA80F310FAE7
:105A700003F100D110BDE41A173C4805C90AE4E758
:105A800001EB045110BD491001EB0451BDE8104079
:105A90004FEA300002E04FF0000170474A0008BFB3
:105AA0000042F8D0B2F5001F28BF704701F0004156
:105AB0004FF0000070479EEA445F07D011EA5E0F86
:105AC000BDE8104004BF002100207047BDE8104031
:105AD00070B5FFF7BFFE00BF40DFF63E83F0004128
